{
    "abi": [
        {
            "inputs": [
                {
                    "internalType": "uint256",
                    "name": "updateInterval",
                    "type": "uint256"
                }
            ],
            "stateMutability": "nonpayable",
            "type": "constructor"
        },
        {
            "inputs": [
                {
                    "internalType": "bytes",
                    "name": "",
                    "type": "bytes"
                }
            ],
            "name": "checkUpkeep",
            "outputs": [
                {
                    "internalType": "bool",
                    "name": "upkeepNeeded",
                    "type": "bool"
                },
                {
                    "internalType": "bytes",
                    "name": "",
                    "type": "bytes"
                }
            ],
            "stateMutability": "view",
            "type": "function"
        },
        {
            "inputs": [],
            "name": "counter",
            "outputs": [
                {
                    "internalType": "uint256",
                    "name": "",
                    "type": "uint256"
                }
            ],
            "stateMutability": "view",
            "type": "function"
        },
        {
            "inputs": [],
            "name": "getLatestData",
            "outputs": [
                {
                    "internalType": "int256",
                    "name": "",
                    "type": "int256"
                }
            ],
            "stateMutability": "view",
            "type": "function"
        },
        {
            "inputs": [],
            "name": "interval",
            "outputs": [
                {
                    "internalType": "uint256",
                    "name": "",
                    "type": "uint256"
                }
            ],
            "stateMutability": "view",
            "type": "function"
        },
        {
            "inputs": [],
            "name": "lastETH_USDC_Price",
            "outputs": [
                {
                    "internalType": "uint256",
                    "name": "",
                    "type": "uint256"
                }
            ],
            "stateMutability": "view",
            "type": "function"
        },
        {
            "inputs": [],
            "name": "lastTimeStamp",
            "outputs": [
                {
                    "internalType": "uint256",
                    "name": "",
                    "type": "uint256"
                }
            ],
            "stateMutability": "view",
            "type": "function"
        },
        {
            "inputs": [
                {
                    "internalType": "bytes",
                    "name": "",
                    "type": "bytes"
                }
            ],
            "name": "performUpkeep",
            "outputs": [],
            "stateMutability": "nonpayable",
            "type": "function"
        }
    ],
    "bytecode": {
        "object": "0x60a03461009257601f6105d838819003918201601f19168301916001600160401b0383118484101761009757808492602094604052833981010312610092575160805242600355600080546001600160a01b03191673694aa1769357215de4fac081bf1f309adc32530617905560405161052a90816100ae82396080518181816101240152818161016c01526102500152f35b600080fd5b634e487b7160e01b600052604160045260246000fdfe60806040818152600436101561001457600080fd5b600091823560e01c9081633f3b3b27146102e6575080634585e33b1461023157806361bc221a146101f55780636e04ff0d14610147578063947a36fb146100ef578063ab757d61146100ae5763c07518da1461006f57600080fd5b346100aa57817ffffffffffffffffffffffffffffffffffffffffffffffffffffffffffffffffc3601126100aa576020906002549051908152f35b5080fd5b50346100aa57817ffffffffffffffffffffffffffffffffffffffffffffffffffffffffffffffffc3601126100aa576020906100e86103e0565b9051908152f35b50346100aa57817ffffffffffffffffffffffffffffffffffffffffffffffffffffffffffffffffc3601126100aa57602090517f00000000000000000000000000000000000000000000000000000000000000008152f35b5090346101f25761015736610320565b50506101656003544261038d565b82519283917f0000000000000000000000000000000000000000000000000000000000000000108252602092818484015260609384518093850152815b8381106101dd575050828201840152601f017fffffffffffffffffffffffffffffffffffffffffffffffffffffffffffffffe0168101030190f35b608081015187820187015286945081016101a2565b80fd5b50346100aa57817ffffffffffffffffffffffffffffffffffffffffffffffffffffffffffffffffc3601126100aa576020906001549051908152f35b82346101f25761024036610320565b505061024e6003544261038d565b7f0000000000000000000000000000000000000000000000000000000000000000106102775780f35b426003556001547fffffffffffffffffffffffffffffffffffffffffffffffffffffffffffffffff81146102b9576001016001556102b36103e0565b60025580f35b6024827f4e487b710000000000000000000000000000000000000000000000000000000081526011600452fd5b8390346100aa57817ffffffffffffffffffffffffffffffffffffffffffffffffffffffffffffffffc3601126100aa576020906003548152f35b9060207ffffffffffffffffffffffffffffffffffffffffffffffffffffffffffffffffc8301126103885760043567ffffffffffffffff9283821161038857806023830112156103885781600401359384116103885760248483010111610388576024019190565b600080fd5b9190820391821161039a57565b7f4e487b7100000000000000000000000000000000000000000000000000000000600052601160045260246000fd5b519069ffffffffffffffffffff8216820361038857565b6000600460a073ffffffffffffffffffffffffffffffffffffffff835416604051928380927ffeaf968c0000000000000000000000000000000000000000000000000000000082525afa9182156104e857809261043c57505090565b90915060a03d81116104e1575b7fffffffffffffffffffffffffffffffffffffffffffffffffffffffffffffffe0601f820116830183811067ffffffffffffffff8211176104b45760a0918491604052810103126101f2575061049e816103c9565b506104b06080602083015192016103c9565b5090565b6024837f4e487b710000000000000000000000000000000000000000000000000000000081526041600452fd5b503d610449565b604051903d90823e3d90fdfea2646970667358221220450bcb12a21e639c3abaea896d777b0467c11dbc5f072c9cad643a81a36a4bb364736f6c63430008110033",
        "linkReferences": {}
    },
    "methodIdentifiers": {
        "checkUpkeep(bytes)": "6e04ff0d",
        "counter()": "61bc221a",
        "getLatestData()": "ab757d61",
        "interval()": "947a36fb",
        "lastETH_USDC_Price()": "c07518da",
        "lastTimeStamp()": "3f3b3b27",
        "performUpkeep(bytes)": "4585e33b"
    },
    "id": 21
}